:040000005BEF03F0BF
:10060000000060EC03F052EC03F081CF01F0026ACD
:1006100032EF03F082808282829482868288828A8C
:1006200005EF03F082808282829482868298829A89
:1006300005EF03F082808282828482968288829A89
:1006400005EF03F082908292828482968298828A59
:1006500005EF03F082908292829482868288828A59
:1006600005EF03F001C003F002C004F00450000ADB
:10067000D8B43DEF03F02AEF03F00350000AD8B4DA
:100680000AEF03F0010AD8B412EF03F0020AD8B45B
:100690001AEF03F0040AD8B422EF03F02AEF03F0B4
:1006A00000EF00F0070E936E000E946E000E826E47
:1006B0000F0EC16E1200000EF86E000101EF03F084
:0A06C000000ED36E000E9B6E1200B8
:020000040020DA
:08000000FFFFFFFFFFFFFFFF00
:020000040030CA
:0E000000FF021F1EFF8181FF0FC00FE00F40A7
:00000001FF
